{
	"ItemManager.sol": {
		"ItemManager": {
			"abi": [
				{
					"anonymous": false,
					"inputs": [
						{
							"indexed": false,
							"internalType": "uint256",
							"name": "_itemIndex",
							"type": "uint256"
						},
						{
							"indexed": false,
							"internalType": "uint256",
							"name": "_step",
							"type": "uint256"
						},
						{
							"indexed": false,
							"internalType": "address",
							"name": "_address",
							"type": "address"
						}
					],
					"name": "SupplyChainStep",
					"type": "event"
				},
				{
					"inputs": [
						{
							"internalType": "string",
							"name": "_identifier",
							"type": "string"
						},
						{
							"internalType": "uint256",
							"name": "_priceInWei",
							"type": "uint256"
						}
					],
					"name": "createItem",
					"outputs": [],
					"stateMutability": "nonpayable",
					"type": "function"
				},
				{
					"inputs": [
						{
							"internalType": "uint256",
							"name": "",
							"type": "uint256"
						}
					],
					"name": "items",
					"outputs": [
						{
							"internalType": "contract Item",
							"name": "_item",
							"type": "address"
						},
						{
							"internalType": "enum ItemManager.SupplyChainSteps",
							"name": "_step",
							"type": "uint8"
						},
						{
							"internalType": "string",
							"name": "_identifier",
							"type": "string"
						}
					],
					"stateMutability": "view",
					"type": "function"
				},
				{
					"inputs": [
						{
							"internalType": "uint256",
							"name": "_index",
							"type": "uint256"
						}
					],
					"name": "triggerDelivery",
					"outputs": [],
					"stateMutability": "nonpayable",
					"type": "function"
				},
				{
					"inputs": [
						{
							"internalType": "uint256",
							"name": "_index",
							"type": "uint256"
						}
					],
					"name": "triggerPayment",
					"outputs": [],
					"stateMutability": "payable",
					"type": "function"
				}
			],
			"devdoc": {
				"kind": "dev",
				"methods": {},
				"version": 1
			},
			"evm": {
				"assembly": "    /* \"ItemManager.sol\":51:1539  contract ItemManager {\r... */\n  mstore(0x40, 0x80)\n  callvalue\n  dup1\n  iszero\n  tag_1\n  jumpi\n  0x00\n  dup1\n  revert\ntag_1:\n  pop\n  dataSize(sub_0)\n  dup1\n  dataOffset(sub_0)\n  0x00\n  codecopy\n  0x00\n  return\nstop\n\nsub_0: assembly {\n        /* \"ItemManager.sol\":51:1539  contract ItemManager {\r... */\n      mstore(0x40, 0x80)\n      jumpi(tag_1, lt(calldatasize, 0x04))\n      shr(0xe0, calldataload(0x00))\n      dup1\n      0x800fb83f\n      eq\n      tag_2\n      jumpi\n      dup1\n      0x8c551742\n      eq\n      tag_3\n      jumpi\n      dup1\n      0xbfb231d2\n      eq\n      tag_4\n      jumpi\n      dup1\n      0xcd31831e\n      eq\n      tag_5\n      jumpi\n    tag_1:\n      0x00\n      dup1\n      revert\n        /* \"ItemManager.sol\":778:1242  function triggerPayment(uint _index) public payable {\r... */\n    tag_2:\n      tag_6\n      0x04\n      dup1\n      calldatasize\n      sub\n      0x20\n      dup2\n      lt\n      iszero\n      tag_7\n      jumpi\n      0x00\n      dup1\n      revert\n    tag_7:\n      dup2\n      add\n      swap1\n      dup1\n      dup1\n      calldataload\n      swap1\n      0x20\n      add\n      swap1\n      swap3\n      swap2\n      swap1\n      pop\n      pop\n      pop\n      tag_8\n      jump\t// in\n    tag_6:\n      stop\n        /* \"ItemManager.sol\":417:775  function createItem(string memory _identifier, uint _priceInWei) public {\r... */\n    tag_3:\n      callvalue\n      dup1\n      iszero\n      tag_9\n      jumpi\n      0x00\n      dup1\n      revert\n    tag_9:\n      pop\n      tag_10\n      0x04\n      dup1\n      calldatasize\n      sub\n      0x40\n      dup2\n      lt\n      iszero\n      tag_11\n      jumpi\n      0x00\n      dup1\n      revert\n    tag_11:\n      dup2\n      add\n      swap1\n      dup1\n      dup1\n      calldataload\n      swap1\n      0x20\n      add\n      swap1\n      0x0100000000\n      dup2\n      gt\n      iszero\n      tag_12\n      jumpi\n      0x00\n      dup1\n      revert\n    tag_12:\n      dup3\n      add\n      dup4\n      0x20\n      dup3\n      add\n      gt\n      iszero\n      tag_13\n      jumpi\n      0x00\n      dup1\n      revert\n    tag_13:\n      dup1\n      calldataload\n      swap1\n      0x20\n      add\n      swap2\n      dup5\n      0x01\n      dup4\n      mul\n      dup5\n      add\n      gt\n      0x0100000000\n      dup4\n      gt\n      or\n      iszero\n      tag_14\n      jumpi\n      0x00\n      dup1\n      revert\n    tag_14:\n      swap2\n      swap1\n      dup1\n      dup1\n      0x1f\n      add\n      0x20\n      dup1\n      swap2\n      div\n      mul\n      0x20\n      add\n      mload(0x40)\n      swap1\n      dup2\n      add\n      0x40\n      mstore\n      dup1\n      swap4\n      swap3\n      swap2\n      swap1\n      dup2\n      dup2\n      mstore\n      0x20\n      add\n      dup4\n      dup4\n      dup1\n      dup3\n      dup5\n      calldatacopy\n      0x00\n      dup2\n      dup5\n      add\n      mstore\n      not(0x1f)\n      0x1f\n      dup3\n      add\n      and\n      swap1\n      pop\n      dup1\n      dup4\n      add\n      swap3\n      pop\n      pop\n      pop\n      pop\n      pop\n      pop\n      pop\n      swap2\n      swap3\n      swap2\n      swap3\n      swap1\n      dup1\n      calldataload\n      swap1\n      0x20\n      add\n      swap1\n      swap3\n      swap2\n      swap1\n      pop\n      pop\n      pop\n      tag_15\n      jump\t// in\n    tag_10:\n      stop\n        /* \"ItemManager.sol\":204:240  mapping(uint => S_Item) public items */\n    tag_4:\n      callvalue\n      dup1\n      iszero\n      tag_16\n      jumpi\n      0x00\n      dup1\n      revert\n    tag_16:\n      pop\n      tag_17\n      0x04\n      dup1\n      calldatasize\n      sub\n      0x20\n      dup2\n      lt\n      iszero\n      tag_18\n      jumpi\n      0x00\n      dup1\n      revert\n    tag_18:\n      dup2\n      add\n      swap1\n      dup1\n      dup1\n      calldataload\n      swap1\n      0x20\n      add\n      swap1\n      swap3\n      swap2\n      swap1\n      pop\n      pop\n      pop\n      tag_19\n      jump\t// in\n    tag_17:\n      mload(0x40)\n      dup1\n      dup5\n      0xffffffffffffffffffffffffffffffffffffffff\n      and\n      dup2\n      mstore\n      0x20\n      add\n      dup4\n      0x02\n      dup2\n      gt\n      iszero\n      tag_20\n      jumpi\n      invalid\n    tag_20:\n      dup2\n      mstore\n      0x20\n      add\n      dup1\n      0x20\n      add\n      dup3\n      dup2\n      sub\n      dup3\n      mstore\n      dup4\n      dup2\n      dup2\n      mload\n      dup2\n      mstore\n      0x20\n      add\n      swap2\n      pop\n      dup1\n      mload\n      swap1\n      0x20\n      add\n      swap1\n      dup1\n      dup4\n      dup4\n      0x00\n    tag_21:\n      dup4\n      dup2\n      lt\n      iszero\n      tag_23\n      jumpi\n      dup1\n      dup3\n      add\n      mload\n      dup2\n      dup5\n      add\n      mstore\n      0x20\n      dup2\n      add\n      swap1\n      pop\n      jump(tag_21)\n    tag_23:\n      pop\n      pop\n      pop\n      pop\n      swap1\n      pop\n      swap1\n      dup2\n      add\n      swap1\n      0x1f\n      and\n      dup1\n      iszero\n      tag_24\n      jumpi\n      dup1\n      dup3\n      sub\n      dup1\n      mload\n      0x01\n      dup4\n      0x20\n      sub\n      0x0100\n      exp\n      sub\n      not\n      and\n      dup2\n      mstore\n      0x20\n      add\n      swap2\n      pop\n    tag_24:\n      pop\n      swap5\n      pop\n      pop\n      pop\n      pop\n      pop\n      mload(0x40)\n      dup1\n      swap2\n      sub\n      swap1\n      return\n        /* \"ItemManager.sol\":1245:1536  function triggerDelivery(uint _index) public {\r... */\n    tag_5:\n      callvalue\n      dup1\n      iszero\n      tag_25\n      jumpi\n      0x00\n      dup1\n      revert\n    tag_25:\n      pop\n      tag_26\n      0x04\n      dup1\n      calldatasize\n      sub\n      0x20\n      dup2\n      lt\n      iszero\n      tag_27\n      jumpi\n      0x00\n      dup1\n      revert\n    tag_27:\n      dup2\n      add\n      swap1\n      dup1\n      dup1\n      calldataload\n      swap1\n      0x20\n      add\n      swap1\n      swap3\n      swap2\n      swap1\n      pop\n      pop\n      pop\n      tag_28\n      jump\t// in\n    tag_26:\n      stop\n        /* \"ItemManager.sol\":778:1242  function triggerPayment(uint _index) public payable {\r... */\n    tag_8:\n        /* \"ItemManager.sol\":834:843  Item item */\n      0x00\n        /* \"ItemManager.sol\":846:851  items */\n      dup1\n        /* \"ItemManager.sol\":846:859  items[_index] */\n      0x00\n        /* \"ItemManager.sol\":852:858  _index */\n      dup4\n        /* \"ItemManager.sol\":846:859  items[_index] */\n      dup2\n      mstore\n      0x20\n      add\n      swap1\n      dup2\n      mstore\n      0x20\n      add\n      0x00\n      keccak256\n        /* \"ItemManager.sol\":846:865  items[_index]._item */\n      0x00\n      add\n      0x00\n      swap1\n      sload\n      swap1\n      0x0100\n      exp\n      swap1\n      div\n      0xffffffffffffffffffffffffffffffffffffffff\n      and\n        /* \"ItemManager.sol\":834:865  Item item = items[_index]._item */\n      swap1\n      pop\n        /* \"ItemManager.sol\":894:904  msg.sender */\n      caller\n        /* \"ItemManager.sol\":877:904  address(item) == msg.sender */\n      0xffffffffffffffffffffffffffffffffffffffff\n      and\n        /* \"ItemManager.sol\":885:889  item */\n      dup2\n        /* \"ItemManager.sol\":877:904  address(item) == msg.sender */\n      0xffffffffffffffffffffffffffffffffffffffff\n      and\n      eq\n        /* \"ItemManager.sol\":869:952  require(address(item) == msg.sender, \"Only items are allowed to update themselves\") */\n      tag_30\n      jumpi\n      mload(0x40)\n      0x08c379a000000000000000000000000000000000000000000000000000000000\n      dup2\n      mstore\n      0x04\n      add\n      dup1\n      dup1\n      0x20\n      add\n      dup3\n      dup2\n      sub\n      dup3\n      mstore\n      0x2b\n      dup2\n      mstore\n      0x20\n      add\n      dup1\n      data_9f19fb5751cdf534e0b2e636777ecb4d76b8c8300832e2baccc89f450c05cc96\n      0x2b\n      swap2\n      codecopy\n      0x40\n      add\n      swap2\n      pop\n      pop\n      mload(0x40)\n      dup1\n      swap2\n      sub\n      swap1\n      revert\n    tag_30:\n        /* \"ItemManager.sol\":985:994  msg.value */\n      callvalue\n        /* \"ItemManager.sol\":964:968  item */\n      dup2\n        /* \"ItemManager.sol\":964:979  item.priceInWei */\n      0xffffffffffffffffffffffffffffffffffffffff\n      and\n      0x3c8da588\n        /* \"ItemManager.sol\":964:981  item.priceInWei() */\n      mload(0x40)\n      dup2\n      0xffffffff\n      and\n      0xe0\n      shl\n      dup2\n      mstore\n      0x04\n      add\n      0x20\n      mload(0x40)\n      dup1\n      dup4\n      sub\n      dup2\n      dup7\n      dup1\n      extcodesize\n      iszero\n      dup1\n      iszero\n      tag_31\n      jumpi\n      0x00\n      dup1\n      revert\n    tag_31:\n      pop\n      gas\n      staticcall\n      iszero\n      dup1\n      iszero\n      tag_33\n      jumpi\n      returndatasize\n      0x00\n      dup1\n      returndatacopy\n      revert(0x00, returndatasize)\n    tag_33:\n      pop\n      pop\n      pop\n      pop\n      mload(0x40)\n      returndatasize\n      0x20\n      dup2\n      lt\n      iszero\n      tag_34\n      jumpi\n      0x00\n      dup1\n      revert\n    tag_34:\n      dup2\n      add\n      swap1\n      dup1\n      dup1\n      mload\n      swap1\n      0x20\n      add\n      swap1\n      swap3\n      swap2\n      swap1\n      pop\n      pop\n      pop\n        /* \"ItemManager.sol\":964:994  item.priceInWei() == msg.value */\n      eq\n        /* \"ItemManager.sol\":956:1017  require(item.priceInWei() == msg.value, \"Not fully paid yet\") */\n      tag_35\n      jumpi\n      mload(0x40)\n      0x08c379a000000000000000000000000000000000000000000000000000000000\n      dup2\n      mstore\n      0x04\n      add\n      dup1\n      dup1\n      0x20\n      add\n      dup3\n      dup2\n      sub\n      dup3\n      mstore\n      0x12\n      dup2\n      mstore\n      0x20\n      add\n      dup1\n      0x4e6f742066756c6c792070616964207965740000000000000000000000000000\n      dup2\n      mstore\n      pop\n      0x20\n      add\n      swap2\n      pop\n      pop\n      mload(0x40)\n      dup1\n      swap2\n      sub\n      swap1\n      revert\n    tag_35:\n        /* \"ItemManager.sol\":1052:1076  SupplyChainSteps.Created */\n      0x00\n        /* \"ItemManager.sol\":1029:1076  items[_index]._step == SupplyChainSteps.Created */\n      0x02\n      dup2\n      gt\n      iszero\n      tag_36\n      jumpi\n      invalid\n    tag_36:\n        /* \"ItemManager.sol\":1029:1034  items */\n      0x00\n        /* \"ItemManager.sol\":1029:1042  items[_index] */\n      dup1\n        /* \"ItemManager.sol\":1035:1041  _index */\n      dup5\n        /* \"ItemManager.sol\":1029:1042  items[_index] */\n      dup2\n      mstore\n      0x20\n      add\n      swap1\n      dup2\n      mstore\n      0x20\n      add\n      0x00\n      keccak256\n        /* \"ItemManager.sol\":1029:1048  items[_index]._step */\n      0x00\n      add\n      0x14\n      swap1\n      sload\n      swap1\n      0x0100\n      exp\n      swap1\n      div\n      0xff\n      and\n        /* \"ItemManager.sol\":1029:1076  items[_index]._step == SupplyChainSteps.Created */\n      0x02\n      dup2\n      gt\n      iszero\n      tag_37\n      jumpi\n      invalid\n    tag_37:\n      eq\n        /* \"ItemManager.sol\":1021:1116  require(items[_index]._step == SupplyChainSteps.Created, \"Item is further in the supply chain\") */\n      tag_38\n      jumpi\n      mload(0x40)\n      0x08c379a000000000000000000000000000000000000000000000000000000000\n      dup2\n      mstore\n      0x04\n      add\n      dup1\n      dup1\n      0x20\n      add\n      dup3\n      dup2\n      sub\n      dup3\n      mstore\n      0x23\n      dup2\n      mstore\n      0x20\n      add\n      dup1\n      data_cf6eddebde2c463e4fff7b7a8ba8005d044b0974a03f3900855b551d6530c382\n      0x23\n      swap2\n      codecopy\n      0x40\n      add\n      swap2\n      pop\n      pop\n      mload(0x40)\n      dup1\n      swap2\n      sub\n      swap1\n      revert\n    tag_38:\n        /* \"ItemManager.sol\":1142:1163  SupplyChainSteps.Paid */\n      0x01\n        /* \"ItemManager.sol\":1120:1125  items */\n      0x00\n        /* \"ItemManager.sol\":1120:1133  items[_index] */\n      dup1\n        /* \"ItemManager.sol\":1126:1132  _index */\n      dup5\n        /* \"ItemManager.sol\":1120:1133  items[_index] */\n      dup2\n      mstore\n      0x20\n      add\n      swap1\n      dup2\n      mstore\n      0x20\n      add\n      0x00\n      keccak256\n        /* \"ItemManager.sol\":1120:1139  items[_index]._step */\n      0x00\n      add\n      0x14\n        /* \"ItemManager.sol\":1120:1163  items[_index]._step = SupplyChainSteps.Paid */\n      0x0100\n      exp\n      dup2\n      sload\n      dup2\n      0xff\n      mul\n      not\n      and\n      swap1\n      dup4\n      0x02\n      dup2\n      gt\n      iszero\n      tag_39\n      jumpi\n      invalid\n    tag_39:\n      mul\n      or\n      swap1\n      sstore\n      pop\n        /* \"ItemManager.sol\":1172:1237  SupplyChainStep(_index, uint(items[_index]._step), address(item)) */\n      0xa4035636e99f06b7651a604c1019fa4e8779fe68ef27eeb74dff2de348f6199b\n        /* \"ItemManager.sol\":1188:1194  _index */\n      dup3\n        /* \"ItemManager.sol\":1201:1206  items */\n      0x00\n        /* \"ItemManager.sol\":1201:1214  items[_index] */\n      dup1\n        /* \"ItemManager.sol\":1207:1213  _index */\n      dup6\n        /* \"ItemManager.sol\":1201:1214  items[_index] */\n      dup2\n      mstore\n      0x20\n      add\n      swap1\n      dup2\n      mstore\n      0x20\n      add\n      0x00\n      keccak256\n        /* \"ItemManager.sol\":1201:1220  items[_index]._step */\n      0x00\n      add\n      0x14\n      swap1\n      sload\n      swap1\n      0x0100\n      exp\n      swap1\n      div\n      0xff\n      and\n        /* \"ItemManager.sol\":1196:1221  uint(items[_index]._step) */\n      0x02\n      dup2\n      gt\n      iszero\n      tag_40\n      jumpi\n      invalid\n    tag_40:\n        /* \"ItemManager.sol\":1231:1235  item */\n      dup4\n        /* \"ItemManager.sol\":1172:1237  SupplyChainStep(_index, uint(items[_index]._step), address(item)) */\n      mload(0x40)\n      dup1\n      dup5\n      dup2\n      mstore\n      0x20\n      add\n      dup4\n      dup2\n      mstore\n      0x20\n      add\n      dup3\n      0xffffffffffffffffffffffffffffffffffffffff\n      and\n      dup2\n      mstore\n      0x20\n      add\n      swap4\n      pop\n      pop\n      pop\n      pop\n      mload(0x40)\n      dup1\n      swap2\n      sub\n      swap1\n      log1\n        /* \"ItemManager.sol\":778:1242  function triggerPayment(uint _index) public payable {\r... */\n      pop\n      pop\n      jump\t// out\n        /* \"ItemManager.sol\":417:775  function createItem(string memory _identifier, uint _priceInWei) public {\r... */\n    tag_15:\n        /* \"ItemManager.sol\":500:509  Item item */\n      0x00\n        /* \"ItemManager.sol\":521:525  this */\n      address\n        /* \"ItemManager.sol\":527:538  _priceInWei */\n      dup3\n        /* \"ItemManager.sol\":540:545  index */\n      sload(0x01)\n        /* \"ItemManager.sol\":512:546  new Item(this, _priceInWei, index) */\n      mload(0x40)\n      tag_42\n      swap1\n      tag_43\n      jump\t// in\n    tag_42:\n      dup1\n      dup5\n      0xffffffffffffffffffffffffffffffffffffffff\n      and\n      dup2\n      mstore\n      0x20\n      add\n      dup4\n      dup2\n      mstore\n      0x20\n      add\n      dup3\n      dup2\n      mstore\n      0x20\n      add\n      swap4\n      pop\n      pop\n      pop\n      pop\n      mload(0x40)\n      dup1\n      swap2\n      sub\n      swap1\n      0x00\n      create\n      dup1\n      iszero\n      dup1\n      iszero\n      tag_44\n      jumpi\n      returndatasize\n      0x00\n      dup1\n      returndatacopy\n      revert(0x00, returndatasize)\n    tag_44:\n      pop\n        /* \"ItemManager.sol\":500:546  Item item = new Item(this, _priceInWei, index) */\n      swap1\n      pop\n        /* \"ItemManager.sol\":578:582  item */\n      dup1\n        /* \"ItemManager.sol\":557:562  items */\n      0x00\n        /* \"ItemManager.sol\":557:569  items[index] */\n      dup1\n        /* \"ItemManager.sol\":563:568  index */\n      sload(0x01)\n        /* \"ItemManager.sol\":557:569  items[index] */\n      dup2\n      mstore\n      0x20\n      add\n      swap1\n      dup2\n      mstore\n      0x20\n      add\n      0x00\n      keccak256\n        /* \"ItemManager.sol\":557:575  items[index]._item */\n      0x00\n      add\n      0x00\n        /* \"ItemManager.sol\":557:582  items[index]._item = item */\n      0x0100\n      exp\n      dup2\n      sload\n      dup2\n      0xffffffffffffffffffffffffffffffffffffffff\n      mul\n      not\n      and\n      swap1\n      dup4\n      0xffffffffffffffffffffffffffffffffffffffff\n      and\n      mul\n      or\n      swap1\n      sstore\n      pop\n        /* \"ItemManager.sol\":614:638  SupplyChainSteps.Created */\n      0x00\n        /* \"ItemManager.sol\":593:598  items */\n      dup1\n        /* \"ItemManager.sol\":593:605  items[index] */\n      0x00\n        /* \"ItemManager.sol\":599:604  index */\n      sload(0x01)\n        /* \"ItemManager.sol\":593:605  items[index] */\n      dup2\n      mstore\n      0x20\n      add\n      swap1\n      dup2\n      mstore\n      0x20\n      add\n      0x00\n      keccak256\n        /* \"ItemManager.sol\":593:611  items[index]._step */\n      0x00\n      add\n      0x14\n        /* \"ItemManager.sol\":593:638  items[index]._step = SupplyChainSteps.Created */\n      0x0100\n      exp\n      dup2\n      sload\n      dup2\n      0xff\n      mul\n      not\n      and\n      swap1\n      dup4\n      0x02\n      dup2\n      gt\n      iszero\n      tag_45\n      jumpi\n      invalid\n    tag_45:\n      mul\n      or\n      swap1\n      sstore\n      pop\n        /* \"ItemManager.sol\":676:687  _identifier */\n      dup3\n        /* \"ItemManager.sol\":649:654  items */\n      0x00\n        /* \"ItemManager.sol\":649:661  items[index] */\n      dup1\n        /* \"ItemManager.sol\":655:660  index */\n      sload(0x01)\n        /* \"ItemManager.sol\":649:661  items[index] */\n      dup2\n      mstore\n      0x20\n      add\n      swap1\n      dup2\n      mstore\n      0x20\n      add\n      0x00\n      keccak256\n        /* \"ItemManager.sol\":649:673  items[index]._identifier */\n      0x01\n      add\n        /* \"ItemManager.sol\":649:687  items[index]._identifier = _identifier */\n      swap1\n      dup1\n      mload\n      swap1\n      0x20\n      add\n      swap1\n      tag_46\n      swap3\n      swap2\n      swap1\n      tag_47\n      jump\t// in\n    tag_46:\n      pop\n        /* \"ItemManager.sol\":696:759  SupplyChainStep(index, uint(items[index]._step), address(item)) */\n      0xa4035636e99f06b7651a604c1019fa4e8779fe68ef27eeb74dff2de348f6199b\n        /* \"ItemManager.sol\":712:717  index */\n      sload(0x01)\n        /* \"ItemManager.sol\":724:729  items */\n      0x00\n        /* \"ItemManager.sol\":724:736  items[index] */\n      dup1\n        /* \"ItemManager.sol\":730:735  index */\n      sload(0x01)\n        /* \"ItemManager.sol\":724:736  items[index] */\n      dup2\n      mstore\n      0x20\n      add\n      swap1\n      dup2\n      mstore\n      0x20\n      add\n      0x00\n      keccak256\n        /* \"ItemManager.sol\":724:742  items[index]._step */\n      0x00\n      add\n      0x14\n      swap1\n      sload\n      swap1\n      0x0100\n      exp\n      swap1\n      div\n      0xff\n      and\n        /* \"ItemManager.sol\":719:743  uint(items[index]._step) */\n      0x02\n      dup2\n      gt\n      iszero\n      tag_48\n      jumpi\n      invalid\n    tag_48:\n        /* \"ItemManager.sol\":753:757  item */\n      dup4\n        /* \"ItemManager.sol\":696:759  SupplyChainStep(index, uint(items[index]._step), address(item)) */\n      mload(0x40)\n      dup1\n      dup5\n      dup2\n      mstore\n      0x20\n      add\n      dup4\n      dup2\n      mstore\n      0x20\n      add\n      dup3\n      0xffffffffffffffffffffffffffffffffffffffff\n      and\n      dup2\n      mstore\n      0x20\n      add\n      swap4\n      pop\n      pop\n      pop\n      pop\n      mload(0x40)\n      dup1\n      swap2\n      sub\n      swap1\n      log1\n        /* \"ItemManager.sol\":763:768  index */\n      0x01\n      0x00\n        /* \"ItemManager.sol\":763:770  index++ */\n      dup2\n      sload\n      dup1\n      swap3\n      swap2\n      swap1\n      0x01\n      add\n      swap2\n      swap1\n      pop\n      sstore\n      pop\n        /* \"ItemManager.sol\":417:775  function createItem(string memory _identifier, uint _priceInWei) public {\r... */\n      pop\n      pop\n      pop\n      jump\t// out\n        /* \"ItemManager.sol\":204:240  mapping(uint => S_Item) public items */\n    tag_19:\n      mstore(0x20, 0x00)\n      dup1\n      0x00\n      mstore\n      keccak256(0x00, 0x40)\n      0x00\n      swap2\n      pop\n      swap1\n      pop\n      dup1\n      0x00\n      add\n      0x00\n      swap1\n      sload\n      swap1\n      0x0100\n      exp\n      swap1\n      div\n      0xffffffffffffffffffffffffffffffffffffffff\n      and\n      swap1\n      dup1\n      0x00\n      add\n      0x14\n      swap1\n      sload\n      swap1\n      0x0100\n      exp\n      swap1\n      div\n      0xff\n      and\n      swap1\n      dup1\n      0x01\n      add\n      dup1\n      sload\n      0x01\n      dup2\n      0x01\n      and\n      iszero\n      0x0100\n      mul\n      sub\n      and\n      0x02\n      swap1\n      div\n      dup1\n      0x1f\n      add\n      0x20\n      dup1\n      swap2\n      div\n      mul\n      0x20\n      add\n      mload(0x40)\n      swap1\n      dup2\n      add\n      0x40\n      mstore\n      dup1\n      swap3\n      swap2\n      swap1\n      dup2\n      dup2\n      mstore\n      0x20\n      add\n      dup3\n      dup1\n      sload\n      0x01\n      dup2\n      0x01\n      and\n      iszero\n      0x0100\n      mul\n      sub\n      and\n      0x02\n      swap1\n      div\n      dup1\n      iszero\n      tag_49\n      jumpi\n      dup1\n      0x1f\n      lt\n      tag_50\n      jumpi\n      0x0100\n      dup1\n      dup4\n      sload\n      div\n      mul\n      dup4\n      mstore\n      swap2\n      0x20\n      add\n      swap2\n      jump(tag_49)\n    tag_50:\n      dup3\n      add\n      swap2\n      swap1\n      0x00\n      mstore\n      keccak256(0x00, 0x20)\n      swap1\n    tag_51:\n      dup2\n      sload\n      dup2\n      mstore\n      swap1\n      0x01\n      add\n      swap1\n      0x20\n      add\n      dup1\n      dup4\n      gt\n      tag_51\n      jumpi\n      dup3\n      swap1\n      sub\n      0x1f\n      and\n      dup3\n      add\n      swap2\n    tag_49:\n      pop\n      pop\n      pop\n      pop\n      pop\n      swap1\n      pop\n      dup4\n      jump\t// out\n        /* \"ItemManager.sol\":1245:1536  function triggerDelivery(uint _index) public {\r... */\n    tag_28:\n        /* \"ItemManager.sol\":1329:1350  SupplyChainSteps.Paid */\n      0x01\n        /* \"ItemManager.sol\":1306:1350  items[_index]._step == SupplyChainSteps.Paid */\n      0x02\n      dup2\n      gt\n      iszero\n      tag_53\n      jumpi\n      invalid\n    tag_53:\n        /* \"ItemManager.sol\":1306:1311  items */\n      0x00\n        /* \"ItemManager.sol\":1306:1319  items[_index] */\n      dup1\n        /* \"ItemManager.sol\":1312:1318  _index */\n      dup4\n        /* \"ItemManager.sol\":1306:1319  items[_index] */\n      dup2\n      mstore\n      0x20\n      add\n      swap1\n      dup2\n      mstore\n      0x20\n      add\n      0x00\n      keccak256\n        /* \"ItemManager.sol\":1306:1325  items[_index]._step */\n      0x00\n      add\n      0x14\n      swap1\n      sload\n      swap1\n      0x0100\n      exp\n      swap1\n      div\n      0xff\n      and\n        /* \"ItemManager.sol\":1306:1350  items[_index]._step == SupplyChainSteps.Paid */\n      0x02\n      dup2\n      gt\n      iszero\n      tag_54\n      jumpi\n      invalid\n    tag_54:\n      eq\n        /* \"ItemManager.sol\":1298:1390  require(items[_index]._step == SupplyChainSteps.Paid, \"Item is further in the supply chain\") */\n      tag_55\n      jumpi\n      mload(0x40)\n      0x08c379a000000000000000000000000000000000000000000000000000000000\n      dup2\n      mstore\n      0x04\n      add\n      dup1\n      dup1\n      0x20\n      add\n      dup3\n      dup2\n      sub\n      dup3\n      mstore\n      0x23\n      dup2\n      mstore\n      0x20\n      add\n      dup1\n      data_cf6eddebde2c463e4fff7b7a8ba8005d044b0974a03f3900855b551d6530c382\n      0x23\n      swap2\n      codecopy\n      0x40\n      add\n      swap2\n      pop\n      pop\n      mload(0x40)\n      dup1\n      swap2\n      sub\n      swap1\n      revert\n    tag_55:\n        /* \"ItemManager.sol\":1416:1442  SupplyChainSteps.Delivered */\n      0x02\n        /* \"ItemManager.sol\":1394:1399  items */\n      0x00\n        /* \"ItemManager.sol\":1394:1407  items[_index] */\n      dup1\n        /* \"ItemManager.sol\":1400:1406  _index */\n      dup4\n        /* \"ItemManager.sol\":1394:1407  items[_index] */\n      dup2\n      mstore\n      0x20\n      add\n      swap1\n      dup2\n      mstore\n      0x20\n      add\n      0x00\n      keccak256\n        /* \"ItemManager.sol\":1394:1413  items[_index]._step */\n      0x00\n      add\n      0x14\n        /* \"ItemManager.sol\":1394:1442  items[_index]._step = SupplyChainSteps.Delivered */\n      0x0100\n      exp\n      dup2\n      sload\n      dup2\n      0xff\n      mul\n      not\n      and\n      swap1\n      dup4\n      0x02\n      dup2\n      gt\n      iszero\n      tag_56\n      jumpi\n      invalid\n    tag_56:\n      mul\n      or\n      swap1\n      sstore\n      pop\n        /* \"ItemManager.sol\":1451:1531  SupplyChainStep(_index, uint(items[_index]._step), address(items[_index]._item)) */\n      0xa4035636e99f06b7651a604c1019fa4e8779fe68ef27eeb74dff2de348f6199b\n        /* \"ItemManager.sol\":1467:1473  _index */\n      dup2\n        /* \"ItemManager.sol\":1480:1485  items */\n      0x00\n        /* \"ItemManager.sol\":1480:1493  items[_index] */\n      dup1\n        /* \"ItemManager.sol\":1486:1492  _index */\n      dup5\n        /* \"ItemManager.sol\":1480:1493  items[_index] */\n      dup2\n      mstore\n      0x20\n      add\n      swap1\n      dup2\n      mstore\n      0x20\n      add\n      0x00\n      keccak256\n        /* \"ItemManager.sol\":1480:1499  items[_index]._step */\n      0x00\n      add\n      0x14\n      swap1\n      sload\n      swap1\n      0x0100\n      exp\n      swap1\n      div\n      0xff\n      and\n        /* \"ItemManager.sol\":1475:1500  uint(items[_index]._step) */\n      0x02\n      dup2\n      gt\n      iszero\n      tag_57\n      jumpi\n      invalid\n    tag_57:\n        /* \"ItemManager.sol\":1510:1515  items */\n      0x00\n        /* \"ItemManager.sol\":1510:1523  items[_index] */\n      dup1\n        /* \"ItemManager.sol\":1516:1522  _index */\n      dup6\n        /* \"ItemManager.sol\":1510:1523  items[_index] */\n      dup2\n      mstore\n      0x20\n      add\n      swap1\n      dup2\n      mstore\n      0x20\n      add\n      0x00\n      keccak256\n        /* \"ItemManager.sol\":1510:1529  items[_index]._item */\n      0x00\n      add\n      0x00\n      swap1\n      sload\n      swap1\n      0x0100\n      exp\n      swap1\n      div\n      0xffffffffffffffffffffffffffffffffffffffff\n      and\n        /* \"ItemManager.sol\":1451:1531  SupplyChainStep(_index, uint(items[_index]._step), address(items[_index]._item)) */\n      mload(0x40)\n      dup1\n      dup5\n      dup2\n      mstore\n      0x20\n      add\n      dup4\n      dup2\n      mstore\n      0x20\n      add\n      dup3\n      0xffffffffffffffffffffffffffffffffffffffff\n      and\n      dup2\n      mstore\n      0x20\n      add\n      swap4\n      pop\n      pop\n      pop\n      pop\n      mload(0x40)\n      dup1\n      swap2\n      sub\n      swap1\n      log1\n        /* \"ItemManager.sol\":1245:1536  function triggerDelivery(uint _index) public {\r... */\n      pop\n      jump\t// out\n    tag_43:\n      dataSize(sub_0)\n      dup1\n      dataOffset(sub_0)\n      dup4\n      codecopy\n      add\n      swap1\n      jump\t// out\n    tag_47:\n      dup3\n      dup1\n      sload\n      0x01\n      dup2\n      0x01\n      and\n      iszero\n      0x0100\n      mul\n      sub\n      and\n      0x02\n      swap1\n      div\n      swap1\n      0x00\n      mstore\n      keccak256(0x00, 0x20)\n      swap1\n      0x1f\n      add\n      0x20\n      swap1\n      div\n      dup2\n      add\n      swap3\n      dup3\n      0x1f\n      lt\n      tag_59\n      jumpi\n      dup1\n      mload\n      not(0xff)\n      and\n      dup4\n      dup1\n      add\n      or\n      dup6\n      sstore\n      jump(tag_58)\n    tag_59:\n      dup3\n      dup1\n      add\n      0x01\n      add\n      dup6\n      sstore\n      dup3\n      iszero\n      tag_58\n      jumpi\n      swap2\n      dup3\n      add\n    tag_60:\n      dup3\n      dup2\n      gt\n      iszero\n      tag_61\n      jumpi\n      dup3\n      mload\n      dup3\n      sstore\n      swap2\n      0x20\n      add\n      swap2\n      swap1\n      0x01\n      add\n      swap1\n      jump(tag_60)\n    tag_61:\n    tag_58:\n      pop\n      swap1\n      pop\n      tag_62\n      swap2\n      swap1\n      tag_63\n      jump\t// in\n    tag_62:\n      pop\n      swap1\n      jump\t// out\n    tag_63:\n    tag_64:\n      dup1\n      dup3\n      gt\n      iszero\n      tag_65\n      jumpi\n      0x00\n      dup2\n      0x00\n      swap1\n      sstore\n      pop\n      0x01\n      add\n      jump(tag_64)\n    tag_65:\n      pop\n      swap1\n      jump\t// out\n    stop\n    data_9f19fb5751cdf534e0b2e636777ecb4d76b8c8300832e2baccc89f450c05cc96 4f6e6c79206974656d732061726520616c6c6f77656420746f20757064617465207468656d73656c766573\n    data_cf6eddebde2c463e4fff7b7a8ba8005d044b0974a03f3900855b551d6530c382 4974656d206973206675727468657220696e2074686520737570706c7920636861696e\n\n    sub_0: assembly {\n            /* \"Item.sol\":54:724  contract Item {\r... */\n          mstore(0x40, 0x80)\n            /* \"Item.sol\":172:338  constructor(ItemManager _parentContract, uint _priceInWei, uint _index) public {\r... */\n          callvalue\n          dup1\n          iszero\n          tag_1\n          jumpi\n          0x00\n          dup1\n          revert\n        tag_1:\n          pop\n          mload(0x40)\n          sub(codesize, bytecodeSize)\n          dup1\n          bytecodeSize\n          dup4\n          codecopy\n          dup2\n          dup2\n          add\n          0x40\n          mstore\n          0x60\n          dup2\n          lt\n          iszero\n          tag_2\n          jumpi\n          0x00\n          dup1\n          revert\n        tag_2:\n          dup2\n          add\n          swap1\n          dup1\n          dup1\n          mload\n          swap1\n          0x20\n          add\n          swap1\n          swap3\n          swap2\n          swap1\n          dup1\n          mload\n          swap1\n          0x20\n          add\n          swap1\n          swap3\n          swap2\n          swap1\n          dup1\n          mload\n          swap1\n          0x20\n          add\n          swap1\n          swap3\n          swap2\n          swap1\n          pop\n          pop\n          pop\n            /* \"Item.sol\":268:279  _priceInWei */\n          dup2\n            /* \"Item.sol\":255:265  priceInWei */\n          0x00\n            /* \"Item.sol\":255:279  priceInWei = _priceInWei */\n          dup2\n          swap1\n          sstore\n          pop\n            /* \"Item.sol\":291:297  _index */\n          dup1\n            /* \"Item.sol\":283:288  index */\n          0x02\n            /* \"Item.sol\":283:297  index = _index */\n          dup2\n          swap1\n          sstore\n          pop\n            /* \"Item.sol\":318:333  _parentContract */\n          dup3\n            /* \"Item.sol\":301:315  parentContract */\n          0x03\n          0x00\n            /* \"Item.sol\":301:333  parentContract = _parentContract */\n          0x0100\n          exp\n          dup2\n          sload\n          dup2\n          0xffffffffffffffffffffffffffffffffffffffff\n          mul\n          not\n          and\n          swap1\n          dup4\n          0xffffffffffffffffffffffffffffffffffffffff\n          and\n          mul\n          or\n          swap1\n          sstore\n          pop\n            /* \"Item.sol\":172:338  constructor(ItemManager _parentContract, uint _priceInWei, uint _index) public {\r... */\n          pop\n          pop\n          pop\n            /* \"Item.sol\":54:724  contract Item {\r... */\n          dataSize(sub_0)\n          dup1\n          dataOffset(sub_0)\n          0x00\n          codecopy\n          0x00\n          return\n        stop\n\n        sub_0: assembly {\n                /* \"Item.sol\":54:724  contract Item {\r... */\n              mstore(0x40, 0x80)\n              jumpi(tag_1, lt(calldatasize, 0x04))\n              shr(0xe0, calldataload(0x00))\n              dup1\n              0x2986c0e5\n              eq\n              tag_3\n              jumpi\n              dup1\n              0x3c8da588\n              eq\n              tag_4\n              jumpi\n              dup1\n              0x83d12eef\n              eq\n              tag_5\n              jumpi\n              jump(tag_2)\n            tag_1:\n              jumpi(tag_2, calldatasize)\n                /* \"Item.sol\":393:403  priceInWei */\n              sload(0x00)\n                /* \"Item.sol\":380:389  msg.value */\n              callvalue\n                /* \"Item.sol\":380:403  msg.value == priceInWei */\n              eq\n                /* \"Item.sol\":372:441  require(msg.value == priceInWei, \"We don't support partial payments\") */\n              tag_8\n              jumpi\n              mload(0x40)\n              0x08c379a000000000000000000000000000000000000000000000000000000000\n              dup2\n              mstore\n              0x04\n              add\n              dup1\n              dup1\n              0x20\n              add\n              dup3\n              dup2\n              sub\n              dup3\n              mstore\n              0x21\n              dup2\n              mstore\n              0x20\n              add\n              dup1\n              data_4c2de9dad3c09b8adae15a19eb3a132cfd5c79a166f2264789701c9bca983333\n              0x21\n              swap2\n              codecopy\n              0x40\n              add\n              swap2\n              pop\n              pop\n              mload(0x40)\n              dup1\n              swap2\n              sub\n              swap1\n              revert\n            tag_8:\n                /* \"Item.sol\":464:465  0 */\n              0x00\n                /* \"Item.sol\":453:460  paidWei */\n              sload(0x01)\n                /* \"Item.sol\":453:465  paidWei == 0 */\n              eq\n                /* \"Item.sol\":445:491  require(paidWei == 0, \"Item is already paid!\") */\n              tag_9\n              jumpi\n              mload(0x40)\n              0x08c379a000000000000000000000000000000000000000000000000000000000\n              dup2\n              mstore\n              0x04\n              add\n              dup1\n              dup1\n              0x20\n              add\n              dup3\n              dup2\n              sub\n              dup3\n              mstore\n              0x15\n              dup2\n              mstore\n              0x20\n              add\n              dup1\n              0x4974656d20697320616c72656164792070616964210000000000000000000000\n              dup2\n              mstore\n              pop\n              0x20\n              add\n              swap2\n              pop\n              pop\n              mload(0x40)\n              dup1\n              swap2\n              sub\n              swap1\n              revert\n            tag_9:\n                /* \"Item.sol\":506:515  msg.value */\n              callvalue\n                /* \"Item.sol\":495:502  paidWei */\n              0x01\n              0x00\n                /* \"Item.sol\":495:515  paidWei += msg.value */\n              dup3\n              dup3\n              sload\n              add\n              swap3\n              pop\n              pop\n              dup2\n              swap1\n              sstore\n              pop\n                /* \"Item.sol\":520:532  bool success */\n              0x00\n                /* \"Item.sol\":546:560  parentContract */\n              0x03\n              0x00\n              swap1\n              sload\n              swap1\n              0x0100\n              exp\n              swap1\n              div\n              0xffffffffffffffffffffffffffffffffffffffff\n              and\n                /* \"Item.sol\":538:566  address(parentContract).call */\n              0xffffffffffffffffffffffffffffffffffffffff\n              and\n                /* \"Item.sol\":573:582  msg.value */\n              callvalue\n                /* \"Item.sol\":635:640  index */\n              sload(0x02)\n                /* \"Item.sol\":584:641  abi.encodeWithSignature(\"triggerPayment(uint256)\", index) */\n              add(0x24, mload(0x40))\n              dup1\n              dup3\n              dup2\n              mstore\n              0x20\n              add\n              swap2\n              pop\n              pop\n              mload(0x40)\n              0x20\n              dup2\n              dup4\n              sub\n              sub\n              dup2\n              mstore\n              swap1\n              0x40\n              mstore\n              and(not(0xffffffffffffffffffffffffffffffffffffffffffffffffffffffff), 0x800fb83f00000000000000000000000000000000000000000000000000000000)\n              0x20\n              dup3\n              add\n              dup1\n              mload\n              0xffffffffffffffffffffffffffffffffffffffffffffffffffffffff\n              dup4\n              dup2\n              dup4\n              and\n              or\n              dup4\n              mstore\n              pop\n              pop\n              pop\n              pop\n                /* \"Item.sol\":538:642  address(parentContract).call{value:msg.value}(abi.encodeWithSignature(\"triggerPayment(uint256)\", index)) */\n              mload(0x40)\n              dup1\n              dup3\n              dup1\n              mload\n              swap1\n              0x20\n              add\n              swap1\n              dup1\n              dup4\n              dup4\n            tag_10:\n              0x20\n              dup4\n              lt\n              tag_12\n              jumpi\n              dup1\n              mload\n              dup3\n              mstore\n              0x20\n              dup3\n              add\n              swap2\n              pop\n              0x20\n              dup2\n              add\n              swap1\n              pop\n              0x20\n              dup4\n              sub\n              swap3\n              pop\n              jump(tag_10)\n            tag_12:\n              0x01\n              dup4\n              0x20\n              sub\n              0x0100\n              exp\n              sub\n              dup1\n              not\n              dup3\n              mload\n              and\n              dup2\n              dup5\n              mload\n              and\n              dup1\n              dup3\n              or\n              dup6\n              mstore\n              pop\n              pop\n              pop\n              pop\n              pop\n              pop\n              swap1\n              pop\n              add\n              swap2\n              pop\n              pop\n              0x00\n              mload(0x40)\n              dup1\n              dup4\n              sub\n              dup2\n              dup6\n              dup8\n              gas\n              call\n              swap3\n              pop\n              pop\n              pop\n              returndatasize\n              dup1\n              0x00\n              dup2\n              eq\n              tag_15\n              jumpi\n              mload(0x40)\n              swap2\n              pop\n              and(add(returndatasize, 0x3f), not(0x1f))\n              dup3\n              add\n              0x40\n              mstore\n              returndatasize\n              dup3\n              mstore\n              returndatasize\n              0x00\n              0x20\n              dup5\n              add\n              returndatacopy\n              jump(tag_14)\n            tag_15:\n              0x60\n              swap2\n              pop\n            tag_14:\n              pop\n                /* \"Item.sol\":519:642  (bool success, ) = address(parentContract).call{value:msg.value}(abi.encodeWithSignature(\"triggerPayment(uint256)\", index)) */\n              pop\n              swap1\n              pop\n                /* \"Item.sol\":654:661  success */\n              dup1\n                /* \"Item.sol\":646:687  require(success, \"Delivery did not work\") */\n              tag_16\n              jumpi\n              mload(0x40)\n              0x08c379a000000000000000000000000000000000000000000000000000000000\n              dup2\n              mstore\n              0x04\n              add\n              dup1\n              dup1\n              0x20\n              add\n              dup3\n              dup2\n              sub\n              dup3\n              mstore\n              0x15\n              dup2\n              mstore\n              0x20\n              add\n              dup1\n              0x44656c697665727920646964206e6f7420776f726b0000000000000000000000\n              dup2\n              mstore\n              pop\n              0x20\n              add\n              swap2\n              pop\n              pop\n              mload(0x40)\n              dup1\n              swap2\n              sub\n              swap1\n              revert\n            tag_16:\n                /* \"Item.sol\":341:692  receive() external payable {\r... */\n              pop\n                /* \"Item.sol\":54:724  contract Item {\r... */\n              stop\n            tag_2:\n              callvalue\n              dup1\n              iszero\n              tag_17\n              jumpi\n              0x00\n              dup1\n              revert\n            tag_17:\n              pop\n              stop\n                /* \"Item.sol\":121:138  uint public index */\n            tag_3:\n              callvalue\n              dup1\n              iszero\n              tag_20\n              jumpi\n              0x00\n              dup1\n              revert\n            tag_20:\n              pop\n              tag_21\n              tag_22\n              jump\t// in\n            tag_21:\n              mload(0x40)\n              dup1\n              dup3\n              dup2\n              mstore\n              0x20\n              add\n              swap2\n              pop\n              pop\n              mload(0x40)\n              dup1\n              swap2\n              sub\n              swap1\n              return\n                /* \"Item.sol\":72:94  uint public priceInWei */\n            tag_4:\n              callvalue\n              dup1\n              iszero\n              tag_23\n              jumpi\n              0x00\n              dup1\n              revert\n            tag_23:\n              pop\n              tag_24\n              tag_25\n              jump\t// in\n            tag_24:\n              mload(0x40)\n              dup1\n              dup3\n              dup2\n              mstore\n              0x20\n              add\n              swap2\n              pop\n              pop\n              mload(0x40)\n              dup1\n              swap2\n              sub\n              swap1\n              return\n                /* \"Item.sol\":98:117  uint public paidWei */\n            tag_5:\n              callvalue\n              dup1\n              iszero\n              tag_26\n              jumpi\n              0x00\n              dup1\n              revert\n            tag_26:\n              pop\n              tag_27\n              tag_28\n              jump\t// in\n            tag_27:\n              mload(0x40)\n              dup1\n              dup3\n              dup2\n              mstore\n              0x20\n              add\n              swap2\n              pop\n              pop\n              mload(0x40)\n              dup1\n              swap2\n              sub\n              swap1\n              return\n                /* \"Item.sol\":121:138  uint public index */\n            tag_22:\n              sload(0x02)\n              dup2\n              jump\t// out\n                /* \"Item.sol\":72:94  uint public priceInWei */\n            tag_25:\n              sload(0x00)\n              dup2\n              jump\t// out\n                /* \"Item.sol\":98:117  uint public paidWei */\n            tag_28:\n              sload(0x01)\n              dup2\n              jump\t// out\n            stop\n            data_4c2de9dad3c09b8adae15a19eb3a132cfd5c79a166f2264789701c9bca983333 576520646f6e277420737570706f7274207061727469616c207061796d656e7473\n\n            auxdata: 0xa264697066735822122027afab39fc71095573b47d93f5590bca569a0d28806b5eda965091b5092226b864736f6c634300060c0033\n        }\n    }\n\n    auxdata: 0xa264697066735822122039fe08a6fcee5d5fa37e58f102f070b681136368f40faa84df9c86fbec03808164736f6c634300060c0033\n}\n",
				"bytecode": {
					"linkReferences": {},
					"object": "608060405234801561001057600080fd5b50610f83806100206000396000f3fe60806040526004361061003f5760003560e01c8063800fb83f146100445780638c55174214610072578063bfb231d214610144578063cd31831e14610227575b600080fd5b6100706004803603602081101561005a57600080fd5b8101908080359060200190929190505050610262565b005b34801561007e57600080fd5b506101426004803603604081101561009557600080fd5b81019080803590602001906401000000008111156100b257600080fd5b8201836020820111156100c457600080fd5b803590602001918460018302840111640100000000831117156100e657600080fd5b91908080601f016020809104026020016040519081016040528093929190818152602001838380828437600081840152601f19601f8201169050808301925050505050505091929192908035906020019092919050505061056b565b005b34801561015057600080fd5b5061017d6004803603602081101561016757600080fd5b810190808035906020019092919050505061072b565b604051808473ffffffffffffffffffffffffffffffffffffffff1681526020018360028111156101a957fe5b815260200180602001828103825283818151815260200191508051906020019080838360005b838110156101ea5780820151818401526020810190506101cf565b50505050905090810190601f1680156102175780820380516001836020036101000a031916815260200191505b5094505050505060405180910390f35b34801561023357600080fd5b506102606004803603602081101561024a57600080fd5b810190808035906020019092919050505061081a565b005b600080600083815260200190815260200160002060000160009054906101000a900473ffffffffffffffffffffffffffffffffffffffff1690503373ffffffffffffffffffffffffffffffffffffffff168173ffffffffffffffffffffffffffffffffffffffff1614610320576040517f08c379a000000000000000000000000000000000000000000000000000000000815260040180806020018281038252602b815260200180610f00602b913960400191505060405180910390fd5b348173ffffffffffffffffffffffffffffffffffffffff16633c8da5886040518163ffffffff1660e01b815260040160206040518083038186803b15801561036757600080fd5b505afa15801561037b573d6000803e3d6000fd5b505050506040513d602081101561039157600080fd5b810190808051906020019092919050505014610415576040517f08c379a00000000000000000000000000000000000000000000000000000000081526004018080602001828103825260128152602001807f4e6f742066756c6c79207061696420796574000000000000000000000000000081525060200191505060405180910390fd5b6000600281111561042257fe5b60008084815260200190815260200160002060000160149054906101000a900460ff16600281111561045057fe5b146104a6576040517f08c379a0000000000000000000000000000000000000000000000000000000008152600401808060200182810382526023815260200180610f2b6023913960400191505060405180910390fd5b600160008084815260200190815260200160002060000160146101000a81548160ff021916908360028111156104d857fe5b02179055507fa4035636e99f06b7651a604c1019fa4e8779fe68ef27eeb74dff2de348f6199b8260008085815260200190815260200160002060000160149054906101000a900460ff16600281111561052d57fe5b83604051808481526020018381526020018273ffffffffffffffffffffffffffffffffffffffff168152602001935050505060405180910390a15050565b6000308260015460405161057e906109a4565b808473ffffffffffffffffffffffffffffffffffffffff1681526020018381526020018281526020019350505050604051809103906000f0801580156105c8573d6000803e3d6000fd5b50905080600080600154815260200190815260200160002060000160006101000a81548173ffffffffffffffffffffffffffffffffffffffff021916908373ffffffffffffffffffffffffffffffffffffffff1602179055506000806000600154815260200190815260200160002060000160146101000a81548160ff0219169083600281111561065557fe5b021790555082600080600154815260200190815260200160002060010190805190602001906106859291906109b1565b507fa4035636e99f06b7651a604c1019fa4e8779fe68ef27eeb74dff2de348f6199b600154600080600154815260200190815260200160002060000160149054906101000a900460ff1660028111156106da57fe5b83604051808481526020018381526020018273ffffffffffffffffffffffffffffffffffffffff168152602001935050505060405180910390a1600160008154809291906001019190505550505050565b60006020528060005260406000206000915090508060000160009054906101000a900473ffffffffffffffffffffffffffffffffffffffff16908060000160149054906101000a900460ff1690806001018054600181600116156101000203166002900480601f0160208091040260200160405190810160405280929190818152602001828054600181600116156101000203166002900480156108105780601f106107e557610100808354040283529160200191610810565b820191906000526020600020905b8154815290600101906020018083116107f357829003601f168201915b5050505050905083565b6001600281111561082757fe5b60008083815260200190815260200160002060000160149054906101000a900460ff16600281111561085557fe5b146108ab576040517f08c379a0000000000000000000000000000000000000000000000000000000008152600401808060200182810382526023815260200180610f2b6023913960400191505060405180910390fd5b600260008083815260200190815260200160002060000160146101000a81548160ff021916908360028111156108dd57fe5b02179055507fa4035636e99f06b7651a604c1019fa4e8779fe68ef27eeb74dff2de348f6199b8160008084815260200190815260200160002060000160149054906101000a900460ff16600281111561093257fe5b60008085815260200190815260200160002060000160009054906101000a900473ffffffffffffffffffffffffffffffffffffffff16604051808481526020018381526020018273ffffffffffffffffffffffffffffffffffffffff168152602001935050505060405180910390a150565b6104b180610a4f83390190565b828054600181600116156101000203166002900490600052602060002090601f016020900481019282601f106109f257805160ff1916838001178555610a20565b82800160010185558215610a20579182015b82811115610a1f578251825591602001919060010190610a04565b5b509050610a2d9190610a31565b5090565b5b80821115610a4a576000816000905550600101610a32565b509056fe608060405234801561001057600080fd5b506040516104b13803806104b18339818101604052606081101561003357600080fd5b81019080805190602001909291908051906020019092919080519060200190929190505050816000819055508060028190555082600360006101000a81548173ffffffffffffffffffffffffffffffffffffffff021916908373ffffffffffffffffffffffffffffffffffffffff1602179055505050506103f8806100b96000396000f3fe6080604052600436106100385760003560e01c80632986c0e51461030e5780633c8da5881461033957806383d12eef14610364576102ff565b366102ff576000543414610097576040517f08c379a00000000000000000000000000000000000000000000000000000000081526004018080602001828103825260218152602001806103a26021913960400191505060405180910390fd5b60006001541461010f576040517f08c379a00000000000000000000000000000000000000000000000000000000081526004018080602001828103825260158152602001807f4974656d20697320616c7265616479207061696421000000000000000000000081525060200191505060405180910390fd5b346001600082825401925050819055506000600360009054906101000a900473ffffffffffffffffffffffffffffffffffffffff1673ffffffffffffffffffffffffffffffffffffffff1634600254604051602401808281526020019150506040516020818303038152906040527f800fb83f000000000000000000000000000000000000000000000000000000007bffffffffffffffffffffffffffffffffffffffffffffffffffffffff19166020820180517bffffffffffffffffffffffffffffffffffffffffffffffffffffffff83818316178352505050506040518082805190602001908083835b6020831061021e57805182526020820191506020810190506020830392506101fb565b6001836020036101000a03801982511681845116808217855250505050505090500191505060006040518083038185875af1925050503d8060008114610280576040519150601f19603f3d011682016040523d82523d6000602084013e610285565b606091505b50509050806102fc576040517f08c379a00000000000000000000000000000000000000000000000000000000081526004018080602001828103825260158152602001807f44656c697665727920646964206e6f7420776f726b000000000000000000000081525060200191505060405180910390fd5b50005b34801561030b57600080fd5b50005b34801561031a57600080fd5b5061032361038f565b6040518082815260200191505060405180910390f35b34801561034557600080fd5b5061034e610395565b6040518082815260200191505060405180910390f35b34801561037057600080fd5b5061037961039b565b6040518082815260200191505060405180910390f35b60025481565b60005481565b6001548156fe576520646f6e277420737570706f7274207061727469616c207061796d656e7473a264697066735822122027afab39fc71095573b47d93f5590bca569a0d28806b5eda965091b5092226b864736f6c634300060c00334f6e6c79206974656d732061726520616c6c6f77656420746f20757064617465207468656d73656c7665734974656d206973206675727468657220696e2074686520737570706c7920636861696ea264697066735822122039fe08a6fcee5d5fa37e58f102f070b681136368f40faa84df9c86fbec03808164736f6c634300060c0033",
					"opcodes": "PUSH1 0x80 PUSH1 0x40 MSTORE CALLVALUE DUP1 ISZERO PUSH2 0x10 JUMPI PUSH1 0x0 DUP1 REVERT JUMPDEST POP PUSH2 0xF83 DUP1 PUSH2 0x20 PUSH1 0x0 CODECOPY PUSH1 0x0 RETURN INVALID PUSH1 0x80 PUSH1 0x40 MSTORE PUSH1 0x4 CALLDATASIZE LT PUSH2 0x3F JUMPI PUSH1 0x0 CALLDATALOAD PUSH1 0xE0 SHR DUP1 PUSH4 0x800FB83F EQ PUSH2 0x44 JUMPI DUP1 PUSH4 0x8C551742 EQ PUSH2 0x72 JUMPI DUP1 PUSH4 0xBFB231D2 EQ PUSH2 0x144 JUMPI DUP1 PUSH4 0xCD31831E EQ PUSH2 0x227 JUMPI JUMPDEST PUSH1 0x0 DUP1 REVERT JUMPDEST PUSH2 0x70 PUSH1 0x4 DUP1 CALLDATASIZE SUB PUSH1 0x20 DUP2 LT ISZERO PUSH2 0x5A JUMPI PUSH1 0x0 DUP1 REVERT JUMPDEST DUP2 ADD SWAP1 DUP1 DUP1 CALLDATALOAD SWAP1 PUSH1 0x20 ADD SWAP1 SWAP3 SWAP2 SWAP1 POP POP POP PUSH2 0x262 JUMP JUMPDEST STOP JUMPDEST CALLVALUE DUP1 ISZERO PUSH2 0x7E JUMPI PUSH1 0x0 DUP1 REVERT JUMPDEST POP PUSH2 0x142 PUSH1 0x4 DUP1 CALLDATASIZE SUB PUSH1 0x40 DUP2 LT ISZERO PUSH2 0x95 JUMPI PUSH1 0x0 DUP1 REVERT JUMPDEST DUP2 ADD SWAP1 DUP1 DUP1 CALLDATALOAD SWAP1 PUSH1 0x20 ADD SWAP1 PUSH5 0x100000000 DUP2 GT ISZERO PUSH2 0xB2 JUMPI PUSH1 0x0 DUP1 REVERT JUMPDEST DUP3 ADD DUP4 PUSH1 0x20 DUP3 ADD GT ISZERO PUSH2 0xC4 JUMPI PUSH1 0x0 DUP1 REVERT JUMPDEST DUP1 CALLDATALOAD SWAP1 PUSH1 0x20 ADD SWAP2 DUP5 PUSH1 0x1 DUP4 MUL DUP5 ADD GT PUSH5 0x100000000 DUP4 GT OR ISZERO PUSH2 0xE6 JUMPI PUSH1 0x0 DUP1 REVERT JUMPDEST SWAP2 SWAP1 DUP1 DUP1 PUSH1 0x1F ADD PUSH1 0x20 DUP1 SWAP2 DIV MUL PUSH1 0x20 ADD PUSH1 0x40 MLOAD SWAP1 DUP2 ADD PUSH1 0x40 MSTORE DUP1 SWAP4 SWAP3 SWAP2 SWAP1 DUP2 DUP2 MSTORE PUSH1 0x20 ADD DUP4 DUP4 DUP1 DUP3 DUP5 CALLDATACOPY PUSH1 0x0 DUP2 DUP5 ADD MSTORE PUSH1 0x1F NOT PUSH1 0x1F DUP3 ADD AND SWAP1 POP DUP1 DUP4 ADD SWAP3 POP POP POP POP POP POP POP SWAP2 SWAP3 SWAP2 SWAP3 SWAP1 DUP1 CALLDATALOAD SWAP1 PUSH1 0x20 ADD SWAP1 SWAP3 SWAP2 SWAP1 POP POP POP PUSH2 0x56B JUMP JUMPDEST STOP JUMPDEST CALLVALUE DUP1 ISZERO PUSH2 0x150 JUMPI PUSH1 0x0 DUP1 REVERT JUMPDEST POP PUSH2 0x17D PUSH1 0x4 DUP1 CALLDATASIZE SUB PUSH1 0x20 DUP2 LT ISZERO PUSH2 0x167 JUMPI PUSH1 0x0 DUP1 REVERT JUMPDEST DUP2 ADD SWAP1 DUP1 DUP1 CALLDATALOAD SWAP1 PUSH1 0x20 ADD SWAP1 SWAP3 SWAP2 SWAP1 POP POP POP PUSH2 0x72B JUMP JUMPDEST PUSH1 0x40 MLOAD DUP1 DUP5 PUSH20 0xFFFFFFFFFFFFFFFFFFFFFFFFFFFFFFFFFFFFFFFF AND DUP2 MSTORE PUSH1 0x20 ADD DUP4 PUSH1 0x2 DUP2 GT ISZERO PUSH2 0x1A9 JUMPI INVALID JUMPDEST DUP2 MSTORE PUSH1 0x20 ADD DUP1 PUSH1 0x20 ADD DUP3 DUP2 SUB DUP3 MSTORE DUP4 DUP2 DUP2 MLOAD DUP2 MSTORE PUSH1 0x20 ADD SWAP2 POP DUP1 MLOAD SWAP1 PUSH1 0x20 ADD SWAP1 DUP1 DUP4 DUP4 PUSH1 0x0 JUMPDEST DUP4 DUP2 LT ISZERO PUSH2 0x1EA JUMPI DUP1 DUP3 ADD MLOAD DUP2 DUP5 ADD MSTORE PUSH1 0x20 DUP2 ADD SWAP1 POP PUSH2 0x1CF JUMP JUMPDEST POP POP POP POP SWAP1 POP SWAP1 DUP2 ADD SWAP1 PUSH1 0x1F AND DUP1 ISZERO PUSH2 0x217 JUMPI DUP1 DUP3 SUB DUP1 MLOAD PUSH1 0x1 DUP4 PUSH1 0x20 SUB PUSH2 0x100 EXP SUB NOT AND DUP2 MSTORE PUSH1 0x20 ADD SWAP2 POP JUMPDEST POP SWAP5 POP POP POP POP POP PUSH1 0x40 MLOAD DUP1 SWAP2 SUB SWAP1 RETURN JUMPDEST CALLVALUE DUP1 ISZERO PUSH2 0x233 JUMPI PUSH1 0x0 DUP1 REVERT JUMPDEST POP PUSH2 0x260 PUSH1 0x4 DUP1 CALLDATASIZE SUB PUSH1 0x20 DUP2 LT ISZERO PUSH2 0x24A JUMPI PUSH1 0x0 DUP1 REVERT JUMPDEST DUP2 ADD SWAP1 DUP1 DUP1 CALLDATALOAD SWAP1 PUSH1 0x20 ADD SWAP1 SWAP3 SWAP2 SWAP1 POP POP POP PUSH2 0x81A JUMP JUMPDEST STOP JUMPDEST PUSH1 0x0 DUP1 PUSH1 0x0 DUP4 DUP2 MSTORE PUSH1 0x20 ADD SWAP1 DUP2 MSTORE PUSH1 0x20 ADD PUSH1 0x0 KECCAK256 PUSH1 0x0 ADD PUSH1 0x0 SWAP1 SLOAD SWAP1 PUSH2 0x100 EXP SWAP1 DIV PUSH20 0xFFFFFFFFFFFFFFFFFFFFFFFFFFFFFFFFFFFFFFFF AND SWAP1 POP CALLER PUSH20 0xFFFFFFFFFFFFFFFFFFFFFFFFFFFFFFFFFFFFFFFF AND DUP2 PUSH20 0xFFFFFFFFFFFFFFFFFFFFFFFFFFFFFFFFFFFFFFFF AND EQ PUSH2 0x320 JUMPI PUSH1 0x40 MLOAD PUSH32 0x8C379A000000000000000000000000000000000000000000000000000000000 DUP2 MSTORE PUSH1 0x4 ADD DUP1 DUP1 PUSH1 0x20 ADD DUP3 DUP2 SUB DUP3 MSTORE PUSH1 0x2B DUP2 MSTORE PUSH1 0x20 ADD DUP1 PUSH2 0xF00 PUSH1 0x2B SWAP2 CODECOPY PUSH1 0x40 ADD SWAP2 POP POP PUSH1 0x40 MLOAD DUP1 SWAP2 SUB SWAP1 REVERT JUMPDEST CALLVALUE DUP2 PUSH20 0xFFFFFFFFFFFFFFFFFFFFFFFFFFFFFFFFFFFFFFFF AND PUSH4 0x3C8DA588 PUSH1 0x40 MLOAD DUP2 PUSH4 0xFFFFFFFF AND PUSH1 0xE0 SHL DUP2 MSTORE PUSH1 0x4 ADD PUSH1 0x20 PUSH1 0x40 MLOAD DUP1 DUP4 SUB DUP2 DUP7 DUP1 EXTCODESIZE ISZERO DUP1 ISZERO PUSH2 0x367 JUMPI PUSH1 0x0 DUP1 REVERT JUMPDEST POP GAS STATICCALL ISZERO DUP1 ISZERO PUSH2 0x37B JUMPI RETURNDATASIZE PUSH1 0x0 DUP1 RETURNDATACOPY RETURNDATASIZE PUSH1 0x0 REVERT JUMPDEST POP POP POP POP PUSH1 0x40 MLOAD RETURNDATASIZE PUSH1 0x20 DUP2 LT ISZERO PUSH2 0x391 JUMPI PUSH1 0x0 DUP1 REVERT JUMPDEST DUP2 ADD SWAP1 DUP1 DUP1 MLOAD SWAP1 PUSH1 0x20 ADD SWAP1 SWAP3 SWAP2 SWAP1 POP POP POP EQ PUSH2 0x415 JUMPI PUSH1 0x40 MLOAD PUSH32 0x8C379A000000000000000000000000000000000000000000000000000000000 DUP2 MSTORE PUSH1 0x4 ADD DUP1 DUP1 PUSH1 0x20 ADD DUP3 DUP2 SUB DUP3 MSTORE PUSH1 0x12 DUP2 MSTORE PUSH1 0x20 ADD DUP1 PUSH32 0x4E6F742066756C6C792070616964207965740000000000000000000000000000 DUP2 MSTORE POP PUSH1 0x20 ADD SWAP2 POP POP PUSH1 0x40 MLOAD DUP1 SWAP2 SUB SWAP1 REVERT JUMPDEST PUSH1 0x0 PUSH1 0x2 DUP2 GT ISZERO PUSH2 0x422 JUMPI INVALID JUMPDEST PUSH1 0x0 DUP1 DUP5 DUP2 MSTORE PUSH1 0x20 ADD SWAP1 DUP2 MSTORE PUSH1 0x20 ADD PUSH1 0x0 KECCAK256 PUSH1 0x0 ADD PUSH1 0x14 SWAP1 SLOAD SWAP1 PUSH2 0x100 EXP SWAP1 DIV PUSH1 0xFF AND PUSH1 0x2 DUP2 GT ISZERO PUSH2 0x450 JUMPI INVALID JUMPDEST EQ PUSH2 0x4A6 JUMPI PUSH1 0x40 MLOAD PUSH32 0x8C379A000000000000000000000000000000000000000000000000000000000 DUP2 MSTORE PUSH1 0x4 ADD DUP1 DUP1 PUSH1 0x20 ADD DUP3 DUP2 SUB DUP3 MSTORE PUSH1 0x23 DUP2 MSTORE PUSH1 0x20 ADD DUP1 PUSH2 0xF2B PUSH1 0x23 SWAP2 CODECOPY PUSH1 0x40 ADD SWAP2 POP POP PUSH1 0x40 MLOAD DUP1 SWAP2 SUB SWAP1 REVERT JUMPDEST PUSH1 0x1 PUSH1 0x0 DUP1 DUP5 DUP2 MSTORE PUSH1 0x20 ADD SWAP1 DUP2 MSTORE PUSH1 0x20 ADD PUSH1 0x0 KECCAK256 PUSH1 0x0 ADD PUSH1 0x14 PUSH2 0x100 EXP DUP2 SLOAD DUP2 PUSH1 0xFF MUL NOT AND SWAP1 DUP4 PUSH1 0x2 DUP2 GT ISZERO PUSH2 0x4D8 JUMPI INVALID JUMPDEST MUL OR SWAP1 SSTORE POP PUSH32 0xA4035636E99F06B7651A604C1019FA4E8779FE68EF27EEB74DFF2DE348F6199B DUP3 PUSH1 0x0 DUP1 DUP6 DUP2 MSTORE PUSH1 0x20 ADD SWAP1 DUP2 MSTORE PUSH1 0x20 ADD PUSH1 0x0 KECCAK256 PUSH1 0x0 ADD PUSH1 0x14 SWAP1 SLOAD SWAP1 PUSH2 0x100 EXP SWAP1 DIV PUSH1 0xFF AND PUSH1 0x2 DUP2 GT ISZERO PUSH2 0x52D JUMPI INVALID JUMPDEST DUP4 PUSH1 0x40 MLOAD DUP1 DUP5 DUP2 MSTORE PUSH1 0x20 ADD DUP4 DUP2 MSTORE PUSH1 0x20 ADD DUP3 PUSH20 0xFFFFFFFFFFFFFFFFFFFFFFFFFFFFFFFFFFFFFFFF AND DUP2 MSTORE PUSH1 0x20 ADD SWAP4 POP POP POP POP PUSH1 0x40 MLOAD DUP1 SWAP2 SUB SWAP1 LOG1 POP POP JUMP JUMPDEST PUSH1 0x0 ADDRESS DUP3 PUSH1 0x1 SLOAD PUSH1 0x40 MLOAD PUSH2 0x57E SWAP1 PUSH2 0x9A4 JUMP JUMPDEST DUP1 DUP5 PUSH20 0xFFFFFFFFFFFFFFFFFFFFFFFFFFFFFFFFFFFFFFFF AND DUP2 MSTORE PUSH1 0x20 ADD DUP4 DUP2 MSTORE PUSH1 0x20 ADD DUP3 DUP2 MSTORE PUSH1 0x20 ADD SWAP4 POP POP POP POP PUSH1 0x40 MLOAD DUP1 SWAP2 SUB SWAP1 PUSH1 0x0 CREATE DUP1 ISZERO DUP1 ISZERO PUSH2 0x5C8 JUMPI RETURNDATASIZE PUSH1 0x0 DUP1 RETURNDATACOPY RETURNDATASIZE PUSH1 0x0 REVERT JUMPDEST POP SWAP1 POP DUP1 PUSH1 0x0 DUP1 PUSH1 0x1 SLOAD DUP2 MSTORE PUSH1 0x20 ADD SWAP1 DUP2 MSTORE PUSH1 0x20 ADD PUSH1 0x0 KECCAK256 PUSH1 0x0 ADD PUSH1 0x0 PUSH2 0x100 EXP DUP2 SLOAD DUP2 PUSH20 0xFFFFFFFFFFFFFFFFFFFFFFFFFFFFFFFFFFFFFFFF MUL NOT AND SWAP1 DUP4 PUSH20 0xFFFFFFFFFFFFFFFFFFFFFFFFFFFFFFFFFFFFFFFF AND MUL OR SWAP1 SSTORE POP PUSH1 0x0 DUP1 PUSH1 0x0 PUSH1 0x1 SLOAD DUP2 MSTORE PUSH1 0x20 ADD SWAP1 DUP2 MSTORE PUSH1 0x20 ADD PUSH1 0x0 KECCAK256 PUSH1 0x0 ADD PUSH1 0x14 PUSH2 0x100 EXP DUP2 SLOAD DUP2 PUSH1 0xFF MUL NOT AND SWAP1 DUP4 PUSH1 0x2 DUP2 GT ISZERO PUSH2 0x655 JUMPI INVALID JUMPDEST MUL OR SWAP1 SSTORE POP DUP3 PUSH1 0x0 DUP1 PUSH1 0x1 SLOAD DUP2 MSTORE PUSH1 0x20 ADD SWAP1 DUP2 MSTORE PUSH1 0x20 ADD PUSH1 0x0 KECCAK256 PUSH1 0x1 ADD SWAP1 DUP1 MLOAD SWAP1 PUSH1 0x20 ADD SWAP1 PUSH2 0x685 SWAP3 SWAP2 SWAP1 PUSH2 0x9B1 JUMP JUMPDEST POP PUSH32 0xA4035636E99F06B7651A604C1019FA4E8779FE68EF27EEB74DFF2DE348F6199B PUSH1 0x1 SLOAD PUSH1 0x0 DUP1 PUSH1 0x1 SLOAD DUP2 MSTORE PUSH1 0x20 ADD SWAP1 DUP2 MSTORE PUSH1 0x20 ADD PUSH1 0x0 KECCAK256 PUSH1 0x0 ADD PUSH1 0x14 SWAP1 SLOAD SWAP1 PUSH2 0x100 EXP SWAP1 DIV PUSH1 0xFF AND PUSH1 0x2 DUP2 GT ISZERO PUSH2 0x6DA JUMPI INVALID JUMPDEST DUP4 PUSH1 0x40 MLOAD DUP1 DUP5 DUP2 MSTORE PUSH1 0x20 ADD DUP4 DUP2 MSTORE PUSH1 0x20 ADD DUP3 PUSH20 0xFFFFFFFFFFFFFFFFFFFFFFFFFFFFFFFFFFFFFFFF AND DUP2 MSTORE PUSH1 0x20 ADD SWAP4 POP POP POP POP PUSH1 0x40 MLOAD DUP1 SWAP2 SUB SWAP1 LOG1 PUSH1 0x1 PUSH1 0x0 DUP2 SLOAD DUP1 SWAP3 SWAP2 SWAP1 PUSH1 0x1 ADD SWAP2 SWAP1 POP SSTORE POP POP POP POP JUMP JUMPDEST PUSH1 0x0 PUSH1 0x20 MSTORE DUP1 PUSH1 0x0 MSTORE PUSH1 0x40 PUSH1 0x0 KECCAK256 PUSH1 0x0 SWAP2 POP SWAP1 POP DUP1 PUSH1 0x0 ADD PUSH1 0x0 SWAP1 SLOAD SWAP1 PUSH2 0x100 EXP SWAP1 DIV PUSH20 0xFFFFFFFFFFFFFFFFFFFFFFFFFFFFFFFFFFFFFFFF AND SWAP1 DUP1 PUSH1 0x0 ADD PUSH1 0x14 SWAP1 SLOAD SWAP1 PUSH2 0x100 EXP SWAP1 DIV PUSH1 0xFF AND SWAP1 DUP1 PUSH1 0x1 ADD DUP1 SLOAD PUSH1 0x1 DUP2 PUSH1 0x1 AND ISZERO PUSH2 0x100 MUL SUB AND PUSH1 0x2 SWAP1 DIV DUP1 PUSH1 0x1F ADD PUSH1 0x20 DUP1 SWAP2 DIV MUL PUSH1 0x20 ADD PUSH1 0x40 MLOAD SWAP1 DUP2 ADD PUSH1 0x40 MSTORE DUP1 SWAP3 SWAP2 SWAP1 DUP2 DUP2 MSTORE PUSH1 0x20 ADD DUP3 DUP1 SLOAD PUSH1 0x1 DUP2 PUSH1 0x1 AND ISZERO PUSH2 0x100 MUL SUB AND PUSH1 0x2 SWAP1 DIV DUP1 ISZERO PUSH2 0x810 JUMPI DUP1 PUSH1 0x1F LT PUSH2 0x7E5 JUMPI PUSH2 0x100 DUP1 DUP4 SLOAD DIV MUL DUP4 MSTORE SWAP2 PUSH1 0x20 ADD SWAP2 PUSH2 0x810 JUMP JUMPDEST DUP3 ADD SWAP2 SWAP1 PUSH1 0x0 MSTORE PUSH1 0x20 PUSH1 0x0 KECCAK256 SWAP1 JUMPDEST DUP2 SLOAD DUP2 MSTORE SWAP1 PUSH1 0x1 ADD SWAP1 PUSH1 0x20 ADD DUP1 DUP4 GT PUSH2 0x7F3 JUMPI DUP3 SWAP1 SUB PUSH1 0x1F AND DUP3 ADD SWAP2 JUMPDEST POP POP POP POP POP SWAP1 POP DUP4 JUMP JUMPDEST PUSH1 0x1 PUSH1 0x2 DUP2 GT ISZERO PUSH2 0x827 JUMPI INVALID JUMPDEST PUSH1 0x0 DUP1 DUP4 DUP2 MSTORE PUSH1 0x20 ADD SWAP1 DUP2 MSTORE PUSH1 0x20 ADD PUSH1 0x0 KECCAK256 PUSH1 0x0 ADD PUSH1 0x14 SWAP1 SLOAD SWAP1 PUSH2 0x100 EXP SWAP1 DIV PUSH1 0xFF AND PUSH1 0x2 DUP2 GT ISZERO PUSH2 0x855 JUMPI INVALID JUMPDEST EQ PUSH2 0x8AB JUMPI PUSH1 0x40 MLOAD PUSH32 0x8C379A000000000000000000000000000000000000000000000000000000000 DUP2 MSTORE PUSH1 0x4 ADD DUP1 DUP1 PUSH1 0x20 ADD DUP3 DUP2 SUB DUP3 MSTORE PUSH1 0x23 DUP2 MSTORE PUSH1 0x20 ADD DUP1 PUSH2 0xF2B PUSH1 0x23 SWAP2 CODECOPY PUSH1 0x40 ADD SWAP2 POP POP PUSH1 0x40 MLOAD DUP1 SWAP2 SUB SWAP1 REVERT JUMPDEST PUSH1 0x2 PUSH1 0x0 DUP1 DUP4 DUP2 MSTORE PUSH1 0x20 ADD SWAP1 DUP2 MSTORE PUSH1 0x20 ADD PUSH1 0x0 KECCAK256 PUSH1 0x0 ADD PUSH1 0x14 PUSH2 0x100 EXP DUP2 SLOAD DUP2 PUSH1 0xFF MUL NOT AND SWAP1 DUP4 PUSH1 0x2 DUP2 GT ISZERO PUSH2 0x8DD JUMPI INVALID JUMPDEST MUL OR SWAP1 SSTORE POP PUSH32 0xA4035636E99F06B7651A604C1019FA4E8779FE68EF27EEB74DFF2DE348F6199B DUP2 PUSH1 0x0 DUP1 DUP5 DUP2 MSTORE PUSH1 0x20 ADD SWAP1 DUP2 MSTORE PUSH1 0x20 ADD PUSH1 0x0 KECCAK256 PUSH1 0x0 ADD PUSH1 0x14 SWAP1 SLOAD SWAP1 PUSH2 0x100 EXP SWAP1 DIV PUSH1 0xFF AND PUSH1 0x2 DUP2 GT ISZERO PUSH2 0x932 JUMPI INVALID JUMPDEST PUSH1 0x0 DUP1 DUP6 DUP2 MSTORE PUSH1 0x20 ADD SWAP1 DUP2 MSTORE PUSH1 0x20 ADD PUSH1 0x0 KECCAK256 PUSH1 0x0 ADD PUSH1 0x0 SWAP1 SLOAD SWAP1 PUSH2 0x100 EXP SWAP1 DIV PUSH20 0xFFFFFFFFFFFFFFFFFFFFFFFFFFFFFFFFFFFFFFFF AND PUSH1 0x40 MLOAD DUP1 DUP5 DUP2 MSTORE PUSH1 0x20 ADD DUP4 DUP2 MSTORE PUSH1 0x20 ADD DUP3 PUSH20 0xFFFFFFFFFFFFFFFFFFFFFFFFFFFFFFFFFFFFFFFF AND DUP2 MSTORE PUSH1 0x20 ADD SWAP4 POP POP POP POP PUSH1 0x40 MLOAD DUP1 SWAP2 SUB SWAP1 LOG1 POP JUMP JUMPDEST PUSH2 0x4B1 DUP1 PUSH2 0xA4F DUP4 CODECOPY ADD SWAP1 JUMP JUMPDEST DUP3 DUP1 SLOAD PUSH1 0x1 DUP2 PUSH1 0x1 AND ISZERO PUSH2 0x100 MUL SUB AND PUSH1 0x2 SWAP1 DIV SWAP1 PUSH1 0x0 MSTORE PUSH1 0x20 PUSH1 0x0 KECCAK256 SWAP1 PUSH1 0x1F ADD PUSH1 0x20 SWAP1 DIV DUP2 ADD SWAP3 DUP3 PUSH1 0x1F LT PUSH2 0x9F2 JUMPI DUP1 MLOAD PUSH1 0xFF NOT AND DUP4 DUP1 ADD OR DUP6 SSTORE PUSH2 0xA20 JUMP JUMPDEST DUP3 DUP1 ADD PUSH1 0x1 ADD DUP6 SSTORE DUP3 ISZERO PUSH2 0xA20 JUMPI SWAP2 DUP3 ADD JUMPDEST DUP3 DUP2 GT ISZERO PUSH2 0xA1F JUMPI DUP3 MLOAD DUP3 SSTORE SWAP2 PUSH1 0x20 ADD SWAP2 SWAP1 PUSH1 0x1 ADD SWAP1 PUSH2 0xA04 JUMP JUMPDEST JUMPDEST POP SWAP1 POP PUSH2 0xA2D SWAP2 SWAP1 PUSH2 0xA31 JUMP JUMPDEST POP SWAP1 JUMP JUMPDEST JUMPDEST DUP1 DUP3 GT ISZERO PUSH2 0xA4A JUMPI PUSH1 0x0 DUP2 PUSH1 0x0 SWAP1 SSTORE POP PUSH1 0x1 ADD PUSH2 0xA32 JUMP JUMPDEST POP SWAP1 JUMP INVALID PUSH1 0x80 PUSH1 0x40 MSTORE CALLVALUE DUP1 ISZERO PUSH2 0x10 JUMPI PUSH1 0x0 DUP1 REVERT JUMPDEST POP PUSH1 0x40 MLOAD PUSH2 0x4B1 CODESIZE SUB DUP1 PUSH2 0x4B1 DUP4 CODECOPY DUP2 DUP2 ADD PUSH1 0x40 MSTORE PUSH1 0x60 DUP2 LT ISZERO PUSH2 0x33 JUMPI PUSH1 0x0 DUP1 REVERT JUMPDEST DUP2 ADD SWAP1 DUP1 DUP1 MLOAD SWAP1 PUSH1 0x20 ADD SWAP1 SWAP3 SWAP2 SWAP1 DUP1 MLOAD SWAP1 PUSH1 0x20 ADD SWAP1 SWAP3 SWAP2 SWAP1 DUP1 MLOAD SWAP1 PUSH1 0x20 ADD SWAP1 SWAP3 SWAP2 SWAP1 POP POP POP DUP2 PUSH1 0x0 DUP2 SWAP1 SSTORE POP DUP1 PUSH1 0x2 DUP2 SWAP1 SSTORE POP DUP3 PUSH1 0x3 PUSH1 0x0 PUSH2 0x100 EXP DUP2 SLOAD DUP2 PUSH20 0xFFFFFFFFFFFFFFFFFFFFFFFFFFFFFFFFFFFFFFFF MUL NOT AND SWAP1 DUP4 PUSH20 0xFFFFFFFFFFFFFFFFFFFFFFFFFFFFFFFFFFFFFFFF AND MUL OR SWAP1 SSTORE POP POP POP POP PUSH2 0x3F8 DUP1 PUSH2 0xB9 PUSH1 0x0 CODECOPY PUSH1 0x0 RETURN INVALID PUSH1 0x80 PUSH1 0x40 MSTORE PUSH1 0x4 CALLDATASIZE LT PUSH2 0x38 JUMPI PUSH1 0x0 CALLDATALOAD PUSH1 0xE0 SHR DUP1 PUSH4 0x2986C0E5 EQ PUSH2 0x30E JUMPI DUP1 PUSH4 0x3C8DA588 EQ PUSH2 0x339 JUMPI DUP1 PUSH4 0x83D12EEF EQ PUSH2 0x364 JUMPI PUSH2 0x2FF JUMP JUMPDEST CALLDATASIZE PUSH2 0x2FF JUMPI PUSH1 0x0 SLOAD CALLVALUE EQ PUSH2 0x97 JUMPI PUSH1 0x40 MLOAD PUSH32 0x8C379A000000000000000000000000000000000000000000000000000000000 DUP2 MSTORE PUSH1 0x4 ADD DUP1 DUP1 PUSH1 0x20 ADD DUP3 DUP2 SUB DUP3 MSTORE PUSH1 0x21 DUP2 MSTORE PUSH1 0x20 ADD DUP1 PUSH2 0x3A2 PUSH1 0x21 SWAP2 CODECOPY PUSH1 0x40 ADD SWAP2 POP POP PUSH1 0x40 MLOAD DUP1 SWAP2 SUB SWAP1 REVERT JUMPDEST PUSH1 0x0 PUSH1 0x1 SLOAD EQ PUSH2 0x10F JUMPI PUSH1 0x40 MLOAD PUSH32 0x8C379A000000000000000000000000000000000000000000000000000000000 DUP2 MSTORE PUSH1 0x4 ADD DUP1 DUP1 PUSH1 0x20 ADD DUP3 DUP2 SUB DUP3 MSTORE PUSH1 0x15 DUP2 MSTORE PUSH1 0x20 ADD DUP1 PUSH32 0x4974656D20697320616C72656164792070616964210000000000000000000000 DUP2 MSTORE POP PUSH1 0x20 ADD SWAP2 POP POP PUSH1 0x40 MLOAD DUP1 SWAP2 SUB SWAP1 REVERT JUMPDEST CALLVALUE PUSH1 0x1 PUSH1 0x0 DUP3 DUP3 SLOAD ADD SWAP3 POP POP DUP2 SWAP1 SSTORE POP PUSH1 0x0 PUSH1 0x3 PUSH1 0x0 SWAP1 SLOAD SWAP1 PUSH2 0x100 EXP SWAP1 DIV PUSH20 0xFFFFFFFFFFFFFFFFFFFFFFFFFFFFFFFFFFFFFFFF AND PUSH20 0xFFFFFFFFFFFFFFFFFFFFFFFFFFFFFFFFFFFFFFFF AND CALLVALUE PUSH1 0x2 SLOAD PUSH1 0x40 MLOAD PUSH1 0x24 ADD DUP1 DUP3 DUP2 MSTORE PUSH1 0x20 ADD SWAP2 POP POP PUSH1 0x40 MLOAD PUSH1 0x20 DUP2 DUP4 SUB SUB DUP2 MSTORE SWAP1 PUSH1 0x40 MSTORE PUSH32 0x800FB83F00000000000000000000000000000000000000000000000000000000 PUSH28 0xFFFFFFFFFFFFFFFFFFFFFFFFFFFFFFFFFFFFFFFFFFFFFFFFFFFFFFFF NOT AND PUSH1 0x20 DUP3 ADD DUP1 MLOAD PUSH28 0xFFFFFFFFFFFFFFFFFFFFFFFFFFFFFFFFFFFFFFFFFFFFFFFFFFFFFFFF DUP4 DUP2 DUP4 AND OR DUP4 MSTORE POP POP POP POP PUSH1 0x40 MLOAD DUP1 DUP3 DUP1 MLOAD SWAP1 PUSH1 0x20 ADD SWAP1 DUP1 DUP4 DUP4 JUMPDEST PUSH1 0x20 DUP4 LT PUSH2 0x21E JUMPI DUP1 MLOAD DUP3 MSTORE PUSH1 0x20 DUP3 ADD SWAP2 POP PUSH1 0x20 DUP2 ADD SWAP1 POP PUSH1 0x20 DUP4 SUB SWAP3 POP PUSH2 0x1FB JUMP JUMPDEST PUSH1 0x1 DUP4 PUSH1 0x20 SUB PUSH2 0x100 EXP SUB DUP1 NOT DUP3 MLOAD AND DUP2 DUP5 MLOAD AND DUP1 DUP3 OR DUP6 MSTORE POP POP POP POP POP POP SWAP1 POP ADD SWAP2 POP POP PUSH1 0x0 PUSH1 0x40 MLOAD DUP1 DUP4 SUB DUP2 DUP6 DUP8 GAS CALL SWAP3 POP POP POP RETURNDATASIZE DUP1 PUSH1 0x0 DUP2 EQ PUSH2 0x280 JUMPI PUSH1 0x40 MLOAD SWAP2 POP PUSH1 0x1F NOT PUSH1 0x3F RETURNDATASIZE ADD AND DUP3 ADD PUSH1 0x40 MSTORE RETURNDATASIZE DUP3 MSTORE RETURNDATASIZE PUSH1 0x0 PUSH1 0x20 DUP5 ADD RETURNDATACOPY PUSH2 0x285 JUMP JUMPDEST PUSH1 0x60 SWAP2 POP JUMPDEST POP POP SWAP1 POP DUP1 PUSH2 0x2FC JUMPI PUSH1 0x40 MLOAD PUSH32 0x8C379A000000000000000000000000000000000000000000000000000000000 DUP2 MSTORE PUSH1 0x4 ADD DUP1 DUP1 PUSH1 0x20 ADD DUP3 DUP2 SUB DUP3 MSTORE PUSH1 0x15 DUP2 MSTORE PUSH1 0x20 ADD DUP1 PUSH32 0x44656C697665727920646964206E6F7420776F726B0000000000000000000000 DUP2 MSTORE POP PUSH1 0x20 ADD SWAP2 POP POP PUSH1 0x40 MLOAD DUP1 SWAP2 SUB SWAP1 REVERT JUMPDEST POP STOP JUMPDEST CALLVALUE DUP1 ISZERO PUSH2 0x30B JUMPI PUSH1 0x0 DUP1 REVERT JUMPDEST POP STOP JUMPDEST CALLVALUE DUP1 ISZERO PUSH2 0x31A JUMPI PUSH1 0x0 DUP1 REVERT JUMPDEST POP PUSH2 0x323 PUSH2 0x38F JUMP JUMPDEST PUSH1 0x40 MLOAD DUP1 DUP3 DUP2 MSTORE PUSH1 0x20 ADD SWAP2 POP POP PUSH1 0x40 MLOAD DUP1 SWAP2 SUB SWAP1 RETURN JUMPDEST CALLVALUE DUP1 ISZERO PUSH2 0x345 JUMPI PUSH1 0x0 DUP1 REVERT JUMPDEST POP PUSH2 0x34E PUSH2 0x395 JUMP JUMPDEST PUSH1 0x40 MLOAD DUP1 DUP3 DUP2 MSTORE PUSH1 0x20 ADD SWAP2 POP POP PUSH1 0x40 MLOAD DUP1 SWAP2 SUB SWAP1 RETURN JUMPDEST CALLVALUE DUP1 ISZERO PUSH2 0x370 JUMPI PUSH1 0x0 DUP1 REVERT JUMPDEST POP PUSH2 0x379 PUSH2 0x39B JUMP JUMPDEST PUSH1 0x40 MLOAD DUP1 DUP3 DUP2 MSTORE PUSH1 0x20 ADD SWAP2 POP POP PUSH1 0x40 MLOAD DUP1 SWAP2 SUB SWAP1 RETURN JUMPDEST PUSH1 0x2 SLOAD DUP2 JUMP JUMPDEST PUSH1 0x0 SLOAD DUP2 JUMP JUMPDEST PUSH1 0x1 SLOAD DUP2 JUMP INVALID JUMPI PUSH6 0x20646F6E2774 KECCAK256 PUSH20 0x7570706F7274207061727469616C207061796D65 PUSH15 0x7473A264697066735822122027AFAB CODECOPY 0xFC PUSH18 0x95573B47D93F5590BCA569A0D28806B5EDA SWAP7 POP SWAP2 0xB5 MULMOD 0x22 0x26 0xB8 PUSH5 0x736F6C6343 STOP MOD 0xC STOP CALLER 0x4F PUSH15 0x6C79206974656D732061726520616C PUSH13 0x6F77656420746F207570646174 PUSH6 0x207468656D73 PUSH6 0x6C7665734974 PUSH6 0x6D2069732066 PUSH22 0x727468657220696E2074686520737570706C79206368 PUSH2 0x696E LOG2 PUSH5 0x6970667358 0x22 SLT KECCAK256 CODECOPY INVALID ADDMOD 0xA6 0xFC 0xEE 0x5D 0x5F LOG3 PUSH31 0x58F102F070B681136368F40FAA84DF9C86FBEC03808164736F6C634300060C STOP CALLER "
				},
				"gasEstimates": {
					"creation": {
						"codeDepositCost": "794200",
						"executionCost": "831",
						"totalCost": "795031"
					},
					"external": {
						"createItem(string,uint256)": "infinite",
						"items(uint256)": "infinite",
						"triggerDelivery(uint256)": "infinite",
						"triggerPayment(uint256)": "infinite"
					}
				},
				"methodIdentifiers": {
					"createItem(string,uint256)": "8c551742",
					"items(uint256)": "bfb231d2",
					"triggerDelivery(uint256)": "cd31831e",
					"triggerPayment(uint256)": "800fb83f"
				}
			},
			"storageLayout": {
				"storage": [
					{
						"astId": 97,
						"contract": "ItemManager.sol:ItemManager",
						"label": "items",
						"offset": 0,
						"slot": "0",
						"type": "t_mapping(t_uint256,t_struct(S_Item)93_storage)"
					},
					{
						"astId": 99,
						"contract": "ItemManager.sol:ItemManager",
						"label": "index",
						"offset": 0,
						"slot": "1",
						"type": "t_uint256"
					}
				],
				"types": {
					"t_contract(Item)83": {
						"encoding": "inplace",
						"label": "contract Item",
						"numberOfBytes": "20"
					},
					"t_enum(SupplyChainSteps)103": {
						"encoding": "inplace",
						"label": "enum ItemManager.SupplyChainSteps",
						"numberOfBytes": "1"
					},
					"t_mapping(t_uint256,t_struct(S_Item)93_storage)": {
						"encoding": "mapping",
						"key": "t_uint256",
						"label": "mapping(uint256 => struct ItemManager.S_Item)",
						"numberOfBytes": "32",
						"value": "t_struct(S_Item)93_storage"
					},
					"t_string_storage": {
						"encoding": "bytes",
						"label": "string",
						"numberOfBytes": "32"
					},
					"t_struct(S_Item)93_storage": {
						"encoding": "inplace",
						"label": "struct ItemManager.S_Item",
						"members": [
							{
								"astId": 88,
								"contract": "ItemManager.sol:ItemManager",
								"label": "_item",
								"offset": 0,
								"slot": "0",
								"type": "t_contract(Item)83"
							},
							{
								"astId": 90,
								"contract": "ItemManager.sol:ItemManager",
								"label": "_step",
								"offset": 20,
								"slot": "0",
								"type": "t_enum(SupplyChainSteps)103"
							},
							{
								"astId": 92,
								"contract": "ItemManager.sol:ItemManager",
								"label": "_identifier",
								"offset": 0,
								"slot": "1",
								"type": "t_string_storage"
							}
						],
						"numberOfBytes": "64"
					},
					"t_uint256": {
						"encoding": "inplace",
						"label": "uint256",
						"numberOfBytes": "32"
					}
				}
			},
			"userdoc": {
				"kind": "user",
				"methods": {},
				"version": 1
			}
		}
	}
}